{
  "contractName": "HEX0924",
  "abi": [
    {
      "inputs": [],
      "stateMutability": "nonpayable",
      "type": "constructor"
    },
    {
      "anonymous": false,
      "inputs": [
        {
          "indexed": false,
          "internalType": "address",
          "name": "",
          "type": "address"
        },
        {
          "indexed": false,
          "internalType": "uint256",
          "name": "",
          "type": "uint256"
        }
      ],
      "name": "Received",
      "type": "event"
    },
    {
      "stateMutability": "payable",
      "type": "fallback"
    },
    {
      "inputs": [
        {
          "internalType": "address",
          "name": "",
          "type": "address"
        }
      ],
      "name": "balance",
      "outputs": [
        {
          "internalType": "uint256",
          "name": "",
          "type": "uint256"
        }
      ],
      "stateMutability": "view",
      "type": "function"
    },
    {
      "inputs": [],
      "name": "implementation",
      "outputs": [
        {
          "internalType": "address",
          "name": "",
          "type": "address"
        }
      ],
      "stateMutability": "view",
      "type": "function"
    },
    {
      "inputs": [],
      "name": "init_amount",
      "outputs": [
        {
          "internalType": "uint256",
          "name": "",
          "type": "uint256"
        }
      ],
      "stateMutability": "view",
      "type": "function"
    },
    {
      "inputs": [],
      "name": "name",
      "outputs": [
        {
          "internalType": "string",
          "name": "",
          "type": "string"
        }
      ],
      "stateMutability": "view",
      "type": "function"
    },
    {
      "inputs": [],
      "name": "owner",
      "outputs": [
        {
          "internalType": "address",
          "name": "",
          "type": "address"
        }
      ],
      "stateMutability": "view",
      "type": "function"
    },
    {
      "inputs": [],
      "name": "owner_address",
      "outputs": [
        {
          "internalType": "address",
          "name": "",
          "type": "address"
        }
      ],
      "stateMutability": "view",
      "type": "function"
    },
    {
      "inputs": [],
      "name": "symbol",
      "outputs": [
        {
          "internalType": "string",
          "name": "",
          "type": "string"
        }
      ],
      "stateMutability": "view",
      "type": "function"
    },
    {
      "inputs": [],
      "name": "total_amount",
      "outputs": [
        {
          "internalType": "uint256",
          "name": "",
          "type": "uint256"
        }
      ],
      "stateMutability": "view",
      "type": "function"
    },
    {
      "stateMutability": "payable",
      "type": "receive"
    },
    {
      "inputs": [],
      "name": "getOwner",
      "outputs": [
        {
          "internalType": "address",
          "name": "",
          "type": "address"
        }
      ],
      "stateMutability": "view",
      "type": "function"
    },
    {
      "inputs": [],
      "name": "getImplementation",
      "outputs": [
        {
          "internalType": "address",
          "name": "",
          "type": "address"
        }
      ],
      "stateMutability": "view",
      "type": "function"
    },
    {
      "inputs": [
        {
          "internalType": "address",
          "name": "_newImplementation",
          "type": "address"
        }
      ],
      "name": "upgradeTo",
      "outputs": [
        {
          "internalType": "bool",
          "name": "",
          "type": "bool"
        }
      ],
      "stateMutability": "nonpayable",
      "type": "function"
    }
  ],
  "bytecode": "0x608060405234801561001057600080fd5b5033600160006101000a81548173ffffffffffffffffffffffffffffffffffffffff021916908373ffffffffffffffffffffffffffffffffffffffff160217905550620186a060008190555060005460046000600160009054906101000a900473ffffffffffffffffffffffffffffffffffffffff1673ffffffffffffffffffffffffffffffffffffffff1673ffffffffffffffffffffffffffffffffffffffff1681526020019081526020016000208190555033600260006101000a81548173ffffffffffffffffffffffffffffffffffffffff021916908373ffffffffffffffffffffffffffffffffffffffff16021790555061097d806101146000396000f3fe6080604052600436106100a05760003560e01c806380edef8e1161006457806380edef8e146102eb578063893d20e8146103165780638da5cb5b1461034157806395d89b411461036c578063aaf10f4214610397578063e3d670d7146103c25761017a565b806306fdde03146102025780631c2e3e8a1461022d5780633659cfe6146102585780635c60da1b14610295578063673cd98e146102c05761017a565b3661017a576096346100b2919061081b565b600460003373ffffffffffffffffffffffffffffffffffffffff1673ffffffffffffffffffffffffffffffffffffffff168152602001908152602001600020546100fc91906107c5565b600460003373ffffffffffffffffffffffffffffffffffffffff1673ffffffffffffffffffffffffffffffffffffffff168152602001908152602001600020819055507f88a5966d370b9919b20f3e2c13ff65706f196a4e32cc2c12bf57088f885258743334604051610170929190610728565b60405180910390a1005b6000600360009054906101000a900473ffffffffffffffffffffffffffffffffffffffff169050600073ffffffffffffffffffffffffffffffffffffffff168173ffffffffffffffffffffffffffffffffffffffff1614156101db57600080fd5b60405136600082376000803683855af43d806000843e81600081146101fe578184f35b8184fd5b34801561020e57600080fd5b506102176103ff565b604051610224919061076c565b60405180910390f35b34801561023957600080fd5b50610242610438565b60405161024f919061078e565b60405180910390f35b34801561026457600080fd5b5061027f600480360381019061027a919061067e565b61043f565b60405161028c9190610751565b60405180910390f35b3480156102a157600080fd5b506102aa610508565b6040516102b7919061070d565b60405180910390f35b3480156102cc57600080fd5b506102d561052e565b6040516102e2919061078e565b60405180910390f35b3480156102f757600080fd5b50610300610534565b60405161030d919061070d565b60405180910390f35b34801561032257600080fd5b5061032b61055a565b604051610338919061070d565b60405180910390f35b34801561034d57600080fd5b50610356610584565b604051610363919061070d565b60405180910390f35b34801561037857600080fd5b506103816105aa565b60405161038e919061076c565b60405180910390f35b3480156103a357600080fd5b506103ac6105e3565b6040516103b9919061070d565b60405180910390f35b3480156103ce57600080fd5b506103e960048036038101906103e4919061067e565b61060d565b6040516103f6919061078e565b60405180910390f35b6040518060400160405280600781526020017f484558303932340000000000000000000000000000000000000000000000000081525081565b620186a081565b6000600260009054906101000a900473ffffffffffffffffffffffffffffffffffffffff1673ffffffffffffffffffffffffffffffffffffffff163373ffffffffffffffffffffffffffffffffffffffff161461049b57600080fd5b8173ffffffffffffffffffffffffffffffffffffffff16600360009054906101000a900473ffffffffffffffffffffffffffffffffffffffff1673ffffffffffffffffffffffffffffffffffffffff1614156104f657600080fd5b6104ff82610625565b60019050919050565b600360009054906101000a900473ffffffffffffffffffffffffffffffffffffffff1681565b60005481565b600160009054906101000a900473ffffffffffffffffffffffffffffffffffffffff1681565b6000600160009054906101000a900473ffffffffffffffffffffffffffffffffffffffff16905090565b600260009054906101000a900473ffffffffffffffffffffffffffffffffffffffff1681565b6040518060400160405280600781526020017f484558544558540000000000000000000000000000000000000000000000000081525081565b6000600360009054906101000a900473ffffffffffffffffffffffffffffffffffffffff16905090565b60046020528060005260406000206000915090505481565b80600360006101000a81548173ffffffffffffffffffffffffffffffffffffffff021916908373ffffffffffffffffffffffffffffffffffffffff16021790555050565b60008135905061067881610930565b92915050565b60006020828403121561069057600080fd5b600061069e84828501610669565b91505092915050565b6106b081610875565b82525050565b6106bf81610887565b82525050565b60006106d0826107a9565b6106da81856107b4565b93506106ea8185602086016108bd565b6106f38161091f565b840191505092915050565b610707816108b3565b82525050565b600060208201905061072260008301846106a7565b92915050565b600060408201905061073d60008301856106a7565b61074a60208301846106fe565b9392505050565b600060208201905061076660008301846106b6565b92915050565b6000602082019050818103600083015261078681846106c5565b905092915050565b60006020820190506107a360008301846106fe565b92915050565b600081519050919050565b600082825260208201905092915050565b60006107d0826108b3565b91506107db836108b3565b9250827fffffffffffffffffffffffffffffffffffffffffffffffffffffffffffffffff038211156108105761080f6108f0565b5b828201905092915050565b6000610826826108b3565b9150610831836108b3565b9250817fffffffffffffffffffffffffffffffffffffffffffffffffffffffffffffffff048311821515161561086a576108696108f0565b5b828202905092915050565b600061088082610893565b9050919050565b60008115159050919050565b600073ffffffffffffffffffffffffffffffffffffffff82169050919050565b6000819050919050565b60005b838110156108db5780820151818401526020810190506108c0565b838111156108ea576000848401525b50505050565b7f4e487b7100000000000000000000000000000000000000000000000000000000600052601160045260246000fd5b6000601f19601f8301169050919050565b61093981610875565b811461094457600080fd5b5056fea2646970667358221220798b0e996c142a3f5e1da3b3ff5f05e4c4df3d9164d21a1d4799c34f42ba7d2f64736f6c63430008040033",
  "immutableReferences": {},
  "source": "// SPDX-License-Identifier: MIT\r\npragma solidity ^0.8.4;\r\n\r\ncontract HEX0924 {\r\n    string public constant name = \"HEX0924\";\r\n    string public constant symbol = \"HEXTEXT\";\r\n    uint256 public constant init_amount = 10**5;\r\n    uint256 public total_amount;\r\n    \r\n    address public owner_address; // owner of HEX0924 contract\r\n    address public owner; // owner of proxy contract\r\n    address public implementation;\r\n    \r\n    \r\n    mapping (address => uint) public balance;\r\n    \r\n    event Received(address, uint);\r\n    \r\n    \r\n    modifier onlyOwner() {\r\n        require(msg.sender == owner);\r\n        _;\r\n    }\r\n    \r\n    constructor () {\r\n        owner_address = msg.sender;\r\n        total_amount = init_amount;\r\n        balance[owner_address] = total_amount;\r\n        owner = msg.sender;\r\n    }\r\n    \r\n    function getOwner() external view returns (address) {\r\n        return owner_address;\r\n    }\r\n    \r\n    function getImplementation() external view returns (address) {\r\n        return implementation;\r\n    }\r\n    \r\n    \r\n    \r\n    function upgradeTo(address _newImplementation) external onlyOwner returns(bool){\r\n        require(implementation != _newImplementation);\r\n        _setImplementation(_newImplementation);\r\n\r\n        return true;\r\n    }\r\n    \r\n    function _setImplementation(address _newImp) internal {\r\n        implementation = _newImp;\r\n    }\r\n    \r\n    \r\n    // fall back function \r\n    fallback() payable external {\r\n        address imp = implementation;\r\n        require(imp != address(0));\r\n        \r\n        assembly {\r\n            let ptr := mload(0x40)\r\n            calldatacopy(ptr, 0, calldatasize())\r\n            let result := delegatecall(gas(), imp, ptr, calldatasize(), 0 , 0)\r\n            let size := returndatasize()\r\n            returndatacopy(ptr, 0, size)\r\n            \r\n            switch result\r\n            case 0 { revert(ptr, size)}\r\n            default { return(ptr, size)}\r\n        }\r\n        \r\n    }\r\n    \r\n    // receive function\r\n    receive() external payable {\r\n        balance[msg.sender] = balance[msg.sender] + (msg.value*150);\r\n        \r\n        emit Received(msg.sender, msg.value); \r\n    }\r\n    \r\n    \r\n    \r\n}",
  "sourcePath": "C:\\Users\\01097\\smart_contract\\contracts\\HEX0924.sol",
  "compiler": {
    "name": "solc",
    "version": "0.8.4+commit.c7e474f2.Emscripten.clang"
  },
  "schemaVersion": "3.4.3",
  "updatedAt": "2021-10-16T08:31:51.195Z",
  "devdoc": {
    "kind": "dev",
    "methods": {},
    "version": 1
  },
  "userdoc": {
    "kind": "user",
    "methods": {},
    "version": 1
  }
}