{
  "contractName": "HEX0924_logic",
  "abi": [
    {
      "anonymous": false,
      "inputs": [
        {
          "indexed": true,
          "internalType": "address",
          "name": "owner",
          "type": "address"
        },
        {
          "indexed": true,
          "internalType": "address",
          "name": "spender",
          "type": "address"
        },
        {
          "indexed": false,
          "internalType": "uint256",
          "name": "value",
          "type": "uint256"
        }
      ],
      "name": "Approval",
      "type": "event"
    },
    {
      "anonymous": false,
      "inputs": [
        {
          "indexed": false,
          "internalType": "address",
          "name": "",
          "type": "address"
        },
        {
          "indexed": false,
          "internalType": "uint256",
          "name": "",
          "type": "uint256"
        }
      ],
      "name": "Received",
      "type": "event"
    },
    {
      "anonymous": false,
      "inputs": [
        {
          "indexed": true,
          "internalType": "address",
          "name": "from",
          "type": "address"
        },
        {
          "indexed": true,
          "internalType": "address",
          "name": "to",
          "type": "address"
        },
        {
          "indexed": false,
          "internalType": "uint256",
          "name": "value",
          "type": "uint256"
        }
      ],
      "name": "Transfer",
      "type": "event"
    },
    {
      "stateMutability": "payable",
      "type": "fallback",
      "payable": true
    },
    {
      "inputs": [
        {
          "internalType": "address",
          "name": "",
          "type": "address"
        }
      ],
      "name": "approved",
      "outputs": [
        {
          "internalType": "uint256",
          "name": "",
          "type": "uint256"
        }
      ],
      "stateMutability": "view",
      "type": "function",
      "constant": true
    },
    {
      "inputs": [
        {
          "internalType": "address",
          "name": "",
          "type": "address"
        }
      ],
      "name": "balance",
      "outputs": [
        {
          "internalType": "uint256",
          "name": "",
          "type": "uint256"
        }
      ],
      "stateMutability": "view",
      "type": "function",
      "constant": true
    },
    {
      "inputs": [],
      "name": "implementation",
      "outputs": [
        {
          "internalType": "address",
          "name": "",
          "type": "address"
        }
      ],
      "stateMutability": "view",
      "type": "function",
      "constant": true
    },
    {
      "inputs": [],
      "name": "init_amount",
      "outputs": [
        {
          "internalType": "uint256",
          "name": "",
          "type": "uint256"
        }
      ],
      "stateMutability": "view",
      "type": "function",
      "constant": true
    },
    {
      "inputs": [],
      "name": "name",
      "outputs": [
        {
          "internalType": "string",
          "name": "",
          "type": "string"
        }
      ],
      "stateMutability": "view",
      "type": "function",
      "constant": true
    },
    {
      "inputs": [],
      "name": "owner",
      "outputs": [
        {
          "internalType": "address",
          "name": "",
          "type": "address"
        }
      ],
      "stateMutability": "view",
      "type": "function",
      "constant": true
    },
    {
      "inputs": [],
      "name": "owner_address",
      "outputs": [
        {
          "internalType": "address",
          "name": "",
          "type": "address"
        }
      ],
      "stateMutability": "view",
      "type": "function",
      "constant": true
    },
    {
      "inputs": [
        {
          "internalType": "uint256",
          "name": "a",
          "type": "uint256"
        },
        {
          "internalType": "uint256",
          "name": "b",
          "type": "uint256"
        }
      ],
      "name": "safeAdd",
      "outputs": [
        {
          "internalType": "uint256",
          "name": "c",
          "type": "uint256"
        }
      ],
      "stateMutability": "pure",
      "type": "function",
      "constant": true
    },
    {
      "inputs": [
        {
          "internalType": "uint256",
          "name": "a",
          "type": "uint256"
        },
        {
          "internalType": "uint256",
          "name": "b",
          "type": "uint256"
        }
      ],
      "name": "safeSub",
      "outputs": [
        {
          "internalType": "uint256",
          "name": "c",
          "type": "uint256"
        }
      ],
      "stateMutability": "pure",
      "type": "function",
      "constant": true
    },
    {
      "inputs": [],
      "name": "symbol",
      "outputs": [
        {
          "internalType": "string",
          "name": "",
          "type": "string"
        }
      ],
      "stateMutability": "view",
      "type": "function",
      "constant": true
    },
    {
      "inputs": [],
      "name": "total_amount",
      "outputs": [
        {
          "internalType": "uint256",
          "name": "",
          "type": "uint256"
        }
      ],
      "stateMutability": "view",
      "type": "function",
      "constant": true
    },
    {
      "inputs": [
        {
          "internalType": "address",
          "name": "_newImplementation",
          "type": "address"
        }
      ],
      "name": "upgrageTo",
      "outputs": [],
      "stateMutability": "nonpayable",
      "type": "function"
    },
    {
      "stateMutability": "payable",
      "type": "receive",
      "payable": true
    },
    {
      "inputs": [
        {
          "internalType": "address",
          "name": "to",
          "type": "address"
        },
        {
          "internalType": "uint256",
          "name": "value",
          "type": "uint256"
        }
      ],
      "name": "transfer",
      "outputs": [
        {
          "internalType": "bool",
          "name": "",
          "type": "bool"
        }
      ],
      "stateMutability": "nonpayable",
      "type": "function"
    },
    {
      "inputs": [
        {
          "internalType": "address",
          "name": "from",
          "type": "address"
        },
        {
          "internalType": "address",
          "name": "to",
          "type": "address"
        },
        {
          "internalType": "uint256",
          "name": "value",
          "type": "uint256"
        }
      ],
      "name": "transferFrom",
      "outputs": [
        {
          "internalType": "bool",
          "name": "",
          "type": "bool"
        }
      ],
      "stateMutability": "nonpayable",
      "type": "function"
    },
    {
      "inputs": [
        {
          "internalType": "address",
          "name": "spender",
          "type": "address"
        },
        {
          "internalType": "uint256",
          "name": "value",
          "type": "uint256"
        }
      ],
      "name": "approve",
      "outputs": [
        {
          "internalType": "bool",
          "name": "",
          "type": "bool"
        }
      ],
      "stateMutability": "nonpayable",
      "type": "function"
    },
    {
      "inputs": [],
      "name": "totalSupply",
      "outputs": [
        {
          "internalType": "uint256",
          "name": "",
          "type": "uint256"
        }
      ],
      "stateMutability": "view",
      "type": "function",
      "constant": true
    },
    {
      "inputs": [
        {
          "internalType": "address",
          "name": "who",
          "type": "address"
        }
      ],
      "name": "balanceOf",
      "outputs": [
        {
          "internalType": "uint256",
          "name": "",
          "type": "uint256"
        }
      ],
      "stateMutability": "view",
      "type": "function",
      "constant": true
    },
    {
      "inputs": [
        {
          "internalType": "address",
          "name": "owner",
          "type": "address"
        },
        {
          "internalType": "address",
          "name": "spender",
          "type": "address"
        }
      ],
      "name": "allowance",
      "outputs": [
        {
          "internalType": "uint256",
          "name": "",
          "type": "uint256"
        }
      ],
      "stateMutability": "view",
      "type": "function",
      "constant": true
    }
  ],
  "bytecode": "0x608060405234801561001057600080fd5b5033600160006101000a81548173ffffffffffffffffffffffffffffffffffffffff021916908373ffffffffffffffffffffffffffffffffffffffff16021790555068056bc75e2d6310000060008190555060005460046000600160009054906101000a900473ffffffffffffffffffffffffffffffffffffffff1673ffffffffffffffffffffffffffffffffffffffff1673ffffffffffffffffffffffffffffffffffffffff1681526020019081526020016000208190555033600260006101000a81548173ffffffffffffffffffffffffffffffffffffffff021916908373ffffffffffffffffffffffffffffffffffffffff1602179055506116ad8061011a6000396000f3fe60806040526004361061010d5760003560e01c806380edef8e11610095578063a9059cbb11610064578063a9059cbb146104e4578063d8b964e614610521578063dd62ed3e1461055e578063e3d670d71461059b578063e6cb9013146105d8576101e7565b806380edef8e146104265780638da5cb5b1461045157806395d89b411461047c578063a293d1e8146104a7576101e7565b806323b872dd116100dc57806323b872dd1461032d5780634e2347801461036a5780635c60da1b14610393578063673cd98e146103be57806370a08231146103e9576101e7565b806306fdde031461026f578063095ea7b31461029a57806318160ddd146102d75780631c2e3e8a14610302576101e7565b366101e75760963461011f9190611500565b600460003373ffffffffffffffffffffffffffffffffffffffff1673ffffffffffffffffffffffffffffffffffffffff1681526020019081526020016000205461016991906114aa565b600460003373ffffffffffffffffffffffffffffffffffffffff1673ffffffffffffffffffffffffffffffffffffffff168152602001908152602001600020819055507f88a5966d370b9919b20f3e2c13ff65706f196a4e32cc2c12bf57088f8852587433346040516101dd92919061140d565b60405180910390a1005b6000600360009054906101000a900473ffffffffffffffffffffffffffffffffffffffff169050600073ffffffffffffffffffffffffffffffffffffffff168173ffffffffffffffffffffffffffffffffffffffff16141561024857600080fd5b60405136600082376000803683855af43d806000843e816000811461026b578184f35b8184fd5b34801561027b57600080fd5b50610284610615565b6040516102919190611451565b60405180910390f35b3480156102a657600080fd5b506102c160048036038101906102bc9190611314565b61064e565b6040516102ce9190611436565b60405180910390f35b3480156102e357600080fd5b506102ec6107fd565b6040516102f99190611473565b60405180910390f35b34801561030e57600080fd5b50610317610806565b6040516103249190611473565b60405180910390f35b34801561033957600080fd5b50610354600480360381019061034f91906112c5565b610813565b6040516103619190611436565b60405180910390f35b34801561037657600080fd5b50610391600480360381019061038c9190611260565b610c7f565b005b34801561039f57600080fd5b506103a8610d40565b6040516103b591906113f2565b60405180910390f35b3480156103ca57600080fd5b506103d3610d66565b6040516103e09190611473565b60405180910390f35b3480156103f557600080fd5b50610410600480360381019061040b9190611260565b610d6c565b60405161041d9190611473565b60405180910390f35b34801561043257600080fd5b5061043b610db5565b60405161044891906113f2565b60405180910390f35b34801561045d57600080fd5b50610466610ddb565b60405161047391906113f2565b60405180910390f35b34801561048857600080fd5b50610491610e01565b60405161049e9190611451565b60405180910390f35b3480156104b357600080fd5b506104ce60048036038101906104c99190611350565b610e3a565b6040516104db9190611473565b60405180910390f35b3480156104f057600080fd5b5061050b60048036038101906105069190611314565b610e5d565b6040516105189190611436565b60405180910390f35b34801561052d57600080fd5b5061054860048036038101906105439190611260565b611118565b6040516105559190611473565b60405180910390f35b34801561056a57600080fd5b5061058560048036038101906105809190611289565b611130565b6040516105929190611473565b60405180910390f35b3480156105a757600080fd5b506105c260048036038101906105bd9190611260565b6111b7565b6040516105cf9190611473565b60405180910390f35b3480156105e457600080fd5b506105ff60048036038101906105fa9190611350565b6111cf565b60405161060c9190611473565b60405180910390f35b6040518060400160405280600781526020017f484558303932340000000000000000000000000000000000000000000000000081525081565b60008073ffffffffffffffffffffffffffffffffffffffff168373ffffffffffffffffffffffffffffffffffffffff161161068857600080fd5b61070e600660003373ffffffffffffffffffffffffffffffffffffffff1673ffffffffffffffffffffffffffffffffffffffff16815260200190815260200160002060008573ffffffffffffffffffffffffffffffffffffffff1673ffffffffffffffffffffffffffffffffffffffff16815260200190815260200160002054836111cf565b600660003373ffffffffffffffffffffffffffffffffffffffff1673ffffffffffffffffffffffffffffffffffffffff16815260200190815260200160002060008573ffffffffffffffffffffffffffffffffffffffff1673ffffffffffffffffffffffffffffffffffffffff168152602001908152602001600020819055508273ffffffffffffffffffffffffffffffffffffffff163373ffffffffffffffffffffffffffffffffffffffff167f8c5be1e5ebec7d5bd14f71427d1e84f3dd0314c0f7b2291e5b200ac8c7c3b925846040516107eb9190611473565b60405180910390a36001905092915050565b60008054905090565b68056bc75e2d6310000081565b60008073ffffffffffffffffffffffffffffffffffffffff168473ffffffffffffffffffffffffffffffffffffffff161161084d57600080fd5b600073ffffffffffffffffffffffffffffffffffffffff168373ffffffffffffffffffffffffffffffffffffffff161161088657600080fd5b81600460008673ffffffffffffffffffffffffffffffffffffffff1673ffffffffffffffffffffffffffffffffffffffff1681526020019081526020016000205410156108d257600080fd5b600460008473ffffffffffffffffffffffffffffffffffffffff1673ffffffffffffffffffffffffffffffffffffffff1681526020019081526020016000205482600460008673ffffffffffffffffffffffffffffffffffffffff1673ffffffffffffffffffffffffffffffffffffffff1681526020019081526020016000205461095d91906114aa565b101561096857600080fd5b81600660008673ffffffffffffffffffffffffffffffffffffffff1673ffffffffffffffffffffffffffffffffffffffff16815260200190815260200160002060003373ffffffffffffffffffffffffffffffffffffffff1673ffffffffffffffffffffffffffffffffffffffff1681526020019081526020016000205410156109f157600080fd5b610a3a600460008673ffffffffffffffffffffffffffffffffffffffff1673ffffffffffffffffffffffffffffffffffffffff1681526020019081526020016000205483610e3a565b600460008673ffffffffffffffffffffffffffffffffffffffff1673ffffffffffffffffffffffffffffffffffffffff16815260200190815260200160002081905550610ac6600460008573ffffffffffffffffffffffffffffffffffffffff1673ffffffffffffffffffffffffffffffffffffffff16815260200190815260200160002054836111cf565b600460008573ffffffffffffffffffffffffffffffffffffffff1673ffffffffffffffffffffffffffffffffffffffff16815260200190815260200160002081905550610b8f600660008673ffffffffffffffffffffffffffffffffffffffff1673ffffffffffffffffffffffffffffffffffffffff16815260200190815260200160002060003373ffffffffffffffffffffffffffffffffffffffff1673ffffffffffffffffffffffffffffffffffffffff1681526020019081526020016000205483610e3a565b600660008673ffffffffffffffffffffffffffffffffffffffff1673ffffffffffffffffffffffffffffffffffffffff16815260200190815260200160002060003373ffffffffffffffffffffffffffffffffffffffff1673ffffffffffffffffffffffffffffffffffffffff168152602001908152602001600020819055503373ffffffffffffffffffffffffffffffffffffffff168473ffffffffffffffffffffffffffffffffffffffff167fddf252ad1be2c89b69c2b068fc378daa952ba7f163c4a11628f55a4df523b3ef84604051610c6c9190611473565b60405180910390a3600190509392505050565b600260009054906101000a900473ffffffffffffffffffffffffffffffffffffffff1673ffffffffffffffffffffffffffffffffffffffff163373ffffffffffffffffffffffffffffffffffffffff1614610cd957600080fd5b8073ffffffffffffffffffffffffffffffffffffffff16600360009054906101000a900473ffffffffffffffffffffffffffffffffffffffff1673ffffffffffffffffffffffffffffffffffffffff161415610d3457600080fd5b610d3d816111f2565b50565b600360009054906101000a900473ffffffffffffffffffffffffffffffffffffffff1681565b60005481565b6000600460008373ffffffffffffffffffffffffffffffffffffffff1673ffffffffffffffffffffffffffffffffffffffff168152602001908152602001600020549050919050565b600160009054906101000a900473ffffffffffffffffffffffffffffffffffffffff1681565b600260009054906101000a900473ffffffffffffffffffffffffffffffffffffffff1681565b6040518060400160405280600781526020017f484558544558540000000000000000000000000000000000000000000000000081525081565b600082821115610e4957600080fd5b8183610e55919061155a565b905092915050565b60008073ffffffffffffffffffffffffffffffffffffffff168373ffffffffffffffffffffffffffffffffffffffff1611610e9757600080fd5b81600460003373ffffffffffffffffffffffffffffffffffffffff1673ffffffffffffffffffffffffffffffffffffffff168152602001908152602001600020541015610ee357600080fd5b600460008473ffffffffffffffffffffffffffffffffffffffff1673ffffffffffffffffffffffffffffffffffffffff1681526020019081526020016000205482600460008673ffffffffffffffffffffffffffffffffffffffff1673ffffffffffffffffffffffffffffffffffffffff16815260200190815260200160002054610f6e91906114aa565b1015610f7957600080fd5b610fce600460003373ffffffffffffffffffffffffffffffffffffffff1673ffffffffffffffffffffffffffffffffffffffff16815260200190815260200160002054600284610fc99190611500565b610e3a565b600460003373ffffffffffffffffffffffffffffffffffffffff1673ffffffffffffffffffffffffffffffffffffffff16815260200190815260200160002081905550611066600460008573ffffffffffffffffffffffffffffffffffffffff1673ffffffffffffffffffffffffffffffffffffffff168152602001908152602001600020546002846110619190611500565b6111cf565b600460008573ffffffffffffffffffffffffffffffffffffffff1673ffffffffffffffffffffffffffffffffffffffff168152602001908152602001600020819055508273ffffffffffffffffffffffffffffffffffffffff163373ffffffffffffffffffffffffffffffffffffffff167fddf252ad1be2c89b69c2b068fc378daa952ba7f163c4a11628f55a4df523b3ef846040516111069190611473565b60405180910390a36001905092915050565b60056020528060005260406000206000915090505481565b6000600660008473ffffffffffffffffffffffffffffffffffffffff1673ffffffffffffffffffffffffffffffffffffffff16815260200190815260200160002060008373ffffffffffffffffffffffffffffffffffffffff1673ffffffffffffffffffffffffffffffffffffffff16815260200190815260200160002054905092915050565b60046020528060005260406000206000915090505481565b600081836111dd91906114aa565b9050828110156111ec57600080fd5b92915050565b80600360006101000a81548173ffffffffffffffffffffffffffffffffffffffff021916908373ffffffffffffffffffffffffffffffffffffffff16021790555050565b60008135905061124581611649565b92915050565b60008135905061125a81611660565b92915050565b60006020828403121561127257600080fd5b600061128084828501611236565b91505092915050565b6000806040838503121561129c57600080fd5b60006112aa85828601611236565b92505060206112bb85828601611236565b9150509250929050565b6000806000606084860312156112da57600080fd5b60006112e886828701611236565b93505060206112f986828701611236565b925050604061130a8682870161124b565b9150509250925092565b6000806040838503121561132757600080fd5b600061133585828601611236565b92505060206113468582860161124b565b9150509250929050565b6000806040838503121561136357600080fd5b60006113718582860161124b565b92505060206113828582860161124b565b9150509250929050565b6113958161158e565b82525050565b6113a4816115a0565b82525050565b60006113b58261148e565b6113bf8185611499565b93506113cf8185602086016115d6565b6113d881611638565b840191505092915050565b6113ec816115cc565b82525050565b6000602082019050611407600083018461138c565b92915050565b6000604082019050611422600083018561138c565b61142f60208301846113e3565b9392505050565b600060208201905061144b600083018461139b565b92915050565b6000602082019050818103600083015261146b81846113aa565b905092915050565b600060208201905061148860008301846113e3565b92915050565b600081519050919050565b600082825260208201905092915050565b60006114b5826115cc565b91506114c0836115cc565b9250827fffffffffffffffffffffffffffffffffffffffffffffffffffffffffffffffff038211156114f5576114f4611609565b5b828201905092915050565b600061150b826115cc565b9150611516836115cc565b9250817fffffffffffffffffffffffffffffffffffffffffffffffffffffffffffffffff048311821515161561154f5761154e611609565b5b828202905092915050565b6000611565826115cc565b9150611570836115cc565b92508282101561158357611582611609565b5b828203905092915050565b6000611599826115ac565b9050919050565b60008115159050919050565b600073ffffffffffffffffffffffffffffffffffffffff82169050919050565b6000819050919050565b60005b838110156115f45780820151818401526020810190506115d9565b83811115611603576000848401525b50505050565b7f4e487b7100000000000000000000000000000000000000000000000000000000600052601160045260246000fd5b6000601f19601f8301169050919050565b6116528161158e565b811461165d57600080fd5b50565b611669816115cc565b811461167457600080fd5b5056fea26469706673582212209bcd45cd1c17bcafefd082100364bbce4c3d96de139a7ee2ef2a4d9a768a86cb64736f6c63430008040033",
  "immutableReferences": {},
  "source": "// SPDX-License-Identifier: MIT\r\npragma solidity ^0.8.4;\r\n\r\nimport \"./HEX0924.sol\";\r\n\r\ncontract safeMath {\r\n    // prevent overflow, underflow\r\n    function safeAdd(uint a, uint b) public pure returns (uint c) {\r\n        c = a + b;\r\n        require(c >= a);\r\n        \r\n        return c;\r\n    }\r\n    \r\n    function safeSub(uint a, uint b) public pure returns (uint c) {\r\n        require(b <= a);\r\n        c = a - b;\r\n        \r\n        return c;\r\n    }\r\n}\r\n\r\n\r\ncontract HEX0924_logic is safeMath, HEX0924{\r\n    //address public owner; // owner of proxy contract\r\n    //address public implementation;\r\n    \r\n    \r\n   // mapping (address => uint) public balance;\r\n    mapping (address => uint) public approved;\r\n    mapping(address => mapping (address => uint256)) private allowed;\r\n    \r\n    event Transfer(address indexed from, address indexed to, uint256 value);\r\n    event Approval(address indexed owner, address indexed spender, uint256 value);\r\n    \r\n    \r\n    \r\n    \r\n    function transfer(address to, uint256 value) external returns (bool) {\r\n        require(to > address(0));\r\n        require(balance[msg.sender] >= value);\r\n        require(balance[to] + value >= balance[to]); // check overflow\r\n        \r\n        balance[msg.sender] = safeSub(balance[msg.sender], value*2);\r\n        balance[to] = safeAdd(balance[to], value*2);\r\n        \r\n        emit Transfer(msg.sender, to, value);\r\n        return true;\r\n    }\r\n    \r\n    function transferFrom(address from, address to, uint256 value) external returns (bool) {\r\n        require(from > address(0));\r\n        require(to > address(0));\r\n        require(balance[from] >= value);\r\n        require(balance[to] + value >= balance[to]);\r\n        require(allowed[from][msg.sender] >= value);\r\n        \r\n        balance[from] = safeSub(balance[from], value);\r\n        balance[to] = safeAdd(balance[to], value);\r\n        allowed[from][msg.sender] = safeSub(allowed[from][msg.sender], value); \r\n        \r\n        emit Transfer(from, msg.sender, value);\r\n        return true;\r\n    }\r\n    \r\n    function approve(address spender, uint256 value) external returns (bool) {\r\n        require(spender > address(0));\r\n        \r\n        allowed[msg.sender][spender] = safeAdd(allowed[msg.sender][spender], value);\r\n        \r\n        emit Approval(msg.sender, spender, value);\r\n        return true;\r\n    }\r\n    \r\n    function totalSupply() external view returns (uint256) {\r\n        return total_amount;\r\n    }\r\n    \r\n    function balanceOf(address who) external view returns (uint256) {\r\n        return balance[who];\r\n    }\r\n    \r\n    function allowance(address owner, address spender) external view returns (uint256) {\r\n        return allowed[owner][spender];\r\n    }\r\n    \r\n    \r\n    \r\n}\r\n\r\n\r\n\r\n\r\n\r\n\r\n\r\n\r\n\r\n\r\n\r\n\r\n\r\n\r\n\r\n\r\n\r\n\r\n\r\ninterface IERC20 {\r\n    function transfer(address to, uint256 value) external returns (bool);\r\n    function approve(address spender, uint256 value) external returns (bool);\r\n    function transferFrom(address from, address to, uint256 value) external returns (bool);\r\n    function totalSupply() external view returns (uint256);\r\n    function balanceOf(address who) external view returns (uint256);\r\n    function allowance(address owner, address spender) external view returns (uint256);\r\n\r\n    event Transfer(address indexed from, address indexed to, uint256 value);\r\n    event Approval(address indexed owner, address indexed spender, uint256 value);\r\n}\r\n",
  "sourcePath": "C:\\Users\\01097\\smart_contract\\contracts\\smartContract.sol",
  "compiler": {
    "name": "solc",
    "version": "0.8.4+commit.c7e474f2.Emscripten.clang"
  },
  "schemaVersion": "3.4.3",
  "updatedAt": "2021-10-15T08:54:00.370Z",
  "networkType": "ethereum",
  "devdoc": {
    "kind": "dev",
    "methods": {},
    "version": 1
  },
  "userdoc": {
    "kind": "user",
    "methods": {},
    "version": 1
  }
}