{
  "contractName": "HEX0924_logic",
  "abi": [
    {
      "anonymous": false,
      "inputs": [
        {
          "indexed": true,
          "internalType": "address",
          "name": "owner",
          "type": "address"
        },
        {
          "indexed": true,
          "internalType": "address",
          "name": "spender",
          "type": "address"
        },
        {
          "indexed": false,
          "internalType": "uint256",
          "name": "value",
          "type": "uint256"
        }
      ],
      "name": "Approval",
      "type": "event"
    },
    {
      "anonymous": false,
      "inputs": [
        {
          "indexed": false,
          "internalType": "address",
          "name": "",
          "type": "address"
        },
        {
          "indexed": false,
          "internalType": "uint256",
          "name": "",
          "type": "uint256"
        }
      ],
      "name": "Received",
      "type": "event"
    },
    {
      "anonymous": false,
      "inputs": [
        {
          "indexed": true,
          "internalType": "address",
          "name": "from",
          "type": "address"
        },
        {
          "indexed": true,
          "internalType": "address",
          "name": "to",
          "type": "address"
        },
        {
          "indexed": false,
          "internalType": "uint256",
          "name": "value",
          "type": "uint256"
        }
      ],
      "name": "Transfer",
      "type": "event"
    },
    {
      "stateMutability": "payable",
      "type": "fallback"
    },
    {
      "inputs": [
        {
          "internalType": "address",
          "name": "",
          "type": "address"
        }
      ],
      "name": "approved",
      "outputs": [
        {
          "internalType": "uint256",
          "name": "",
          "type": "uint256"
        }
      ],
      "stateMutability": "view",
      "type": "function"
    },
    {
      "inputs": [
        {
          "internalType": "address",
          "name": "",
          "type": "address"
        }
      ],
      "name": "balance",
      "outputs": [
        {
          "internalType": "uint256",
          "name": "",
          "type": "uint256"
        }
      ],
      "stateMutability": "view",
      "type": "function"
    },
    {
      "inputs": [],
      "name": "getImplementation",
      "outputs": [
        {
          "internalType": "address",
          "name": "",
          "type": "address"
        }
      ],
      "stateMutability": "view",
      "type": "function"
    },
    {
      "inputs": [],
      "name": "getOwner",
      "outputs": [
        {
          "internalType": "address",
          "name": "",
          "type": "address"
        }
      ],
      "stateMutability": "view",
      "type": "function"
    },
    {
      "inputs": [],
      "name": "implementation",
      "outputs": [
        {
          "internalType": "address",
          "name": "",
          "type": "address"
        }
      ],
      "stateMutability": "view",
      "type": "function"
    },
    {
      "inputs": [],
      "name": "init_amount",
      "outputs": [
        {
          "internalType": "uint256",
          "name": "",
          "type": "uint256"
        }
      ],
      "stateMutability": "view",
      "type": "function"
    },
    {
      "inputs": [],
      "name": "name",
      "outputs": [
        {
          "internalType": "string",
          "name": "",
          "type": "string"
        }
      ],
      "stateMutability": "view",
      "type": "function"
    },
    {
      "inputs": [],
      "name": "owner",
      "outputs": [
        {
          "internalType": "address",
          "name": "",
          "type": "address"
        }
      ],
      "stateMutability": "view",
      "type": "function"
    },
    {
      "inputs": [],
      "name": "owner_address",
      "outputs": [
        {
          "internalType": "address",
          "name": "",
          "type": "address"
        }
      ],
      "stateMutability": "view",
      "type": "function"
    },
    {
      "inputs": [
        {
          "internalType": "uint256",
          "name": "a",
          "type": "uint256"
        },
        {
          "internalType": "uint256",
          "name": "b",
          "type": "uint256"
        }
      ],
      "name": "safeAdd",
      "outputs": [
        {
          "internalType": "uint256",
          "name": "c",
          "type": "uint256"
        }
      ],
      "stateMutability": "pure",
      "type": "function"
    },
    {
      "inputs": [
        {
          "internalType": "uint256",
          "name": "a",
          "type": "uint256"
        },
        {
          "internalType": "uint256",
          "name": "b",
          "type": "uint256"
        }
      ],
      "name": "safeSub",
      "outputs": [
        {
          "internalType": "uint256",
          "name": "c",
          "type": "uint256"
        }
      ],
      "stateMutability": "pure",
      "type": "function"
    },
    {
      "inputs": [],
      "name": "symbol",
      "outputs": [
        {
          "internalType": "string",
          "name": "",
          "type": "string"
        }
      ],
      "stateMutability": "view",
      "type": "function"
    },
    {
      "inputs": [],
      "name": "total_amount",
      "outputs": [
        {
          "internalType": "uint256",
          "name": "",
          "type": "uint256"
        }
      ],
      "stateMutability": "view",
      "type": "function"
    },
    {
      "inputs": [
        {
          "internalType": "address",
          "name": "_newImplementation",
          "type": "address"
        }
      ],
      "name": "upgradeTo",
      "outputs": [
        {
          "internalType": "bool",
          "name": "",
          "type": "bool"
        }
      ],
      "stateMutability": "nonpayable",
      "type": "function"
    },
    {
      "stateMutability": "payable",
      "type": "receive"
    },
    {
      "inputs": [
        {
          "internalType": "address",
          "name": "to",
          "type": "address"
        },
        {
          "internalType": "uint256",
          "name": "value",
          "type": "uint256"
        }
      ],
      "name": "transfer",
      "outputs": [
        {
          "internalType": "bool",
          "name": "",
          "type": "bool"
        }
      ],
      "stateMutability": "nonpayable",
      "type": "function"
    },
    {
      "inputs": [
        {
          "internalType": "address",
          "name": "from",
          "type": "address"
        },
        {
          "internalType": "address",
          "name": "to",
          "type": "address"
        },
        {
          "internalType": "uint256",
          "name": "value",
          "type": "uint256"
        }
      ],
      "name": "transferFrom",
      "outputs": [
        {
          "internalType": "bool",
          "name": "",
          "type": "bool"
        }
      ],
      "stateMutability": "nonpayable",
      "type": "function"
    },
    {
      "inputs": [
        {
          "internalType": "address",
          "name": "spender",
          "type": "address"
        },
        {
          "internalType": "uint256",
          "name": "value",
          "type": "uint256"
        }
      ],
      "name": "approve",
      "outputs": [
        {
          "internalType": "bool",
          "name": "",
          "type": "bool"
        }
      ],
      "stateMutability": "nonpayable",
      "type": "function"
    },
    {
      "inputs": [],
      "name": "totalSupply",
      "outputs": [
        {
          "internalType": "uint256",
          "name": "",
          "type": "uint256"
        }
      ],
      "stateMutability": "view",
      "type": "function"
    },
    {
      "inputs": [
        {
          "internalType": "address",
          "name": "who",
          "type": "address"
        }
      ],
      "name": "balanceOf",
      "outputs": [
        {
          "internalType": "uint256",
          "name": "",
          "type": "uint256"
        }
      ],
      "stateMutability": "view",
      "type": "function"
    },
    {
      "inputs": [
        {
          "internalType": "address",
          "name": "owner",
          "type": "address"
        },
        {
          "internalType": "address",
          "name": "spender",
          "type": "address"
        }
      ],
      "name": "allowance",
      "outputs": [
        {
          "internalType": "uint256",
          "name": "",
          "type": "uint256"
        }
      ],
      "stateMutability": "view",
      "type": "function"
    }
  ],
  "bytecode": "0x608060405234801561001057600080fd5b5033600160006101000a81548173ffffffffffffffffffffffffffffffffffffffff021916908373ffffffffffffffffffffffffffffffffffffffff160217905550620186a060008190555060005460046000600160009054906101000a900473ffffffffffffffffffffffffffffffffffffffff1673ffffffffffffffffffffffffffffffffffffffff1673ffffffffffffffffffffffffffffffffffffffff1681526020019081526020016000208190555033600260006101000a81548173ffffffffffffffffffffffffffffffffffffffff021916908373ffffffffffffffffffffffffffffffffffffffff16021790555061176b806101146000396000f3fe6080604052600436106101235760003560e01c8063893d20e8116100a0578063aaf10f4211610064578063aaf10f4214610576578063d8b964e6146105a1578063dd62ed3e146105de578063e3d670d71461061b578063e6cb901314610658576101fd565b8063893d20e81461047b5780638da5cb5b146104a657806395d89b41146104d1578063a293d1e8146104fc578063a9059cbb14610539576101fd565b80633659cfe6116100e75780633659cfe6146103805780635c60da1b146103bd578063673cd98e146103e857806370a082311461041357806380edef8e14610450576101fd565b806306fdde0314610285578063095ea7b3146102b057806318160ddd146102ed5780631c2e3e8a1461031857806323b872dd14610343576101fd565b366101fd5760963461013591906115be565b600460003373ffffffffffffffffffffffffffffffffffffffff1673ffffffffffffffffffffffffffffffffffffffff1681526020019081526020016000205461017f9190611568565b600460003373ffffffffffffffffffffffffffffffffffffffff1673ffffffffffffffffffffffffffffffffffffffff168152602001908152602001600020819055507f88a5966d370b9919b20f3e2c13ff65706f196a4e32cc2c12bf57088f8852587433346040516101f39291906114cb565b60405180910390a1005b6000600360009054906101000a900473ffffffffffffffffffffffffffffffffffffffff169050600073ffffffffffffffffffffffffffffffffffffffff168173ffffffffffffffffffffffffffffffffffffffff16141561025e57600080fd5b60405136600082376000803683855af43d806000843e8160008114610281578184f35b8184fd5b34801561029157600080fd5b5061029a610695565b6040516102a7919061150f565b60405180910390f35b3480156102bc57600080fd5b506102d760048036038101906102d291906113d2565b6106ce565b6040516102e491906114f4565b60405180910390f35b3480156102f957600080fd5b5061030261087d565b60405161030f9190611531565b60405180910390f35b34801561032457600080fd5b5061032d610886565b60405161033a9190611531565b60405180910390f35b34801561034f57600080fd5b5061036a60048036038101906103659190611383565b61088d565b60405161037791906114f4565b60405180910390f35b34801561038c57600080fd5b506103a760048036038101906103a2919061131e565b610cf9565b6040516103b491906114f4565b60405180910390f35b3480156103c957600080fd5b506103d2610dc2565b6040516103df91906114b0565b60405180910390f35b3480156103f457600080fd5b506103fd610de8565b60405161040a9190611531565b60405180910390f35b34801561041f57600080fd5b5061043a6004803603810190610435919061131e565b610dee565b6040516104479190611531565b60405180910390f35b34801561045c57600080fd5b50610465610e37565b60405161047291906114b0565b60405180910390f35b34801561048757600080fd5b50610490610e5d565b60405161049d91906114b0565b60405180910390f35b3480156104b257600080fd5b506104bb610e87565b6040516104c891906114b0565b60405180910390f35b3480156104dd57600080fd5b506104e6610ead565b6040516104f3919061150f565b60405180910390f35b34801561050857600080fd5b50610523600480360381019061051e919061140e565b610ee6565b6040516105309190611531565b60405180910390f35b34801561054557600080fd5b50610560600480360381019061055b91906113d2565b610f09565b60405161056d91906114f4565b60405180910390f35b34801561058257600080fd5b5061058b6111ac565b60405161059891906114b0565b60405180910390f35b3480156105ad57600080fd5b506105c860048036038101906105c3919061131e565b6111d6565b6040516105d59190611531565b60405180910390f35b3480156105ea57600080fd5b5061060560048036038101906106009190611347565b6111ee565b6040516106129190611531565b60405180910390f35b34801561062757600080fd5b50610642600480360381019061063d919061131e565b611275565b60405161064f9190611531565b60405180910390f35b34801561066457600080fd5b5061067f600480360381019061067a919061140e565b61128d565b60405161068c9190611531565b60405180910390f35b6040518060400160405280600781526020017f484558303932340000000000000000000000000000000000000000000000000081525081565b60008073ffffffffffffffffffffffffffffffffffffffff168373ffffffffffffffffffffffffffffffffffffffff161161070857600080fd5b61078e600660003373ffffffffffffffffffffffffffffffffffffffff1673ffffffffffffffffffffffffffffffffffffffff16815260200190815260200160002060008573ffffffffffffffffffffffffffffffffffffffff1673ffffffffffffffffffffffffffffffffffffffff168152602001908152602001600020548361128d565b600660003373ffffffffffffffffffffffffffffffffffffffff1673ffffffffffffffffffffffffffffffffffffffff16815260200190815260200160002060008573ffffffffffffffffffffffffffffffffffffffff1673ffffffffffffffffffffffffffffffffffffffff168152602001908152602001600020819055508273ffffffffffffffffffffffffffffffffffffffff163373ffffffffffffffffffffffffffffffffffffffff167f8c5be1e5ebec7d5bd14f71427d1e84f3dd0314c0f7b2291e5b200ac8c7c3b9258460405161086b9190611531565b60405180910390a36001905092915050565b60008054905090565b620186a081565b60008073ffffffffffffffffffffffffffffffffffffffff168473ffffffffffffffffffffffffffffffffffffffff16116108c757600080fd5b600073ffffffffffffffffffffffffffffffffffffffff168373ffffffffffffffffffffffffffffffffffffffff161161090057600080fd5b81600460008673ffffffffffffffffffffffffffffffffffffffff1673ffffffffffffffffffffffffffffffffffffffff16815260200190815260200160002054101561094c57600080fd5b600460008473ffffffffffffffffffffffffffffffffffffffff1673ffffffffffffffffffffffffffffffffffffffff1681526020019081526020016000205482600460008673ffffffffffffffffffffffffffffffffffffffff1673ffffffffffffffffffffffffffffffffffffffff168152602001908152602001600020546109d79190611568565b10156109e257600080fd5b81600660008673ffffffffffffffffffffffffffffffffffffffff1673ffffffffffffffffffffffffffffffffffffffff16815260200190815260200160002060003373ffffffffffffffffffffffffffffffffffffffff1673ffffffffffffffffffffffffffffffffffffffff168152602001908152602001600020541015610a6b57600080fd5b610ab4600460008673ffffffffffffffffffffffffffffffffffffffff1673ffffffffffffffffffffffffffffffffffffffff1681526020019081526020016000205483610ee6565b600460008673ffffffffffffffffffffffffffffffffffffffff1673ffffffffffffffffffffffffffffffffffffffff16815260200190815260200160002081905550610b40600460008573ffffffffffffffffffffffffffffffffffffffff1673ffffffffffffffffffffffffffffffffffffffff168152602001908152602001600020548361128d565b600460008573ffffffffffffffffffffffffffffffffffffffff1673ffffffffffffffffffffffffffffffffffffffff16815260200190815260200160002081905550610c09600660008673ffffffffffffffffffffffffffffffffffffffff1673ffffffffffffffffffffffffffffffffffffffff16815260200190815260200160002060003373ffffffffffffffffffffffffffffffffffffffff1673ffffffffffffffffffffffffffffffffffffffff1681526020019081526020016000205483610ee6565b600660008673ffffffffffffffffffffffffffffffffffffffff1673ffffffffffffffffffffffffffffffffffffffff16815260200190815260200160002060003373ffffffffffffffffffffffffffffffffffffffff1673ffffffffffffffffffffffffffffffffffffffff168152602001908152602001600020819055503373ffffffffffffffffffffffffffffffffffffffff168473ffffffffffffffffffffffffffffffffffffffff167fddf252ad1be2c89b69c2b068fc378daa952ba7f163c4a11628f55a4df523b3ef84604051610ce69190611531565b60405180910390a3600190509392505050565b6000600260009054906101000a900473ffffffffffffffffffffffffffffffffffffffff1673ffffffffffffffffffffffffffffffffffffffff163373ffffffffffffffffffffffffffffffffffffffff1614610d5557600080fd5b8173ffffffffffffffffffffffffffffffffffffffff16600360009054906101000a900473ffffffffffffffffffffffffffffffffffffffff1673ffffffffffffffffffffffffffffffffffffffff161415610db057600080fd5b610db9826112b0565b60019050919050565b600360009054906101000a900473ffffffffffffffffffffffffffffffffffffffff1681565b60005481565b6000600460008373ffffffffffffffffffffffffffffffffffffffff1673ffffffffffffffffffffffffffffffffffffffff168152602001908152602001600020549050919050565b600160009054906101000a900473ffffffffffffffffffffffffffffffffffffffff1681565b6000600160009054906101000a900473ffffffffffffffffffffffffffffffffffffffff16905090565b600260009054906101000a900473ffffffffffffffffffffffffffffffffffffffff1681565b6040518060400160405280600781526020017f484558544558540000000000000000000000000000000000000000000000000081525081565b600082821115610ef557600080fd5b8183610f019190611618565b905092915050565b60008073ffffffffffffffffffffffffffffffffffffffff168373ffffffffffffffffffffffffffffffffffffffff1611610f4357600080fd5b81600460003373ffffffffffffffffffffffffffffffffffffffff1673ffffffffffffffffffffffffffffffffffffffff168152602001908152602001600020541015610f8f57600080fd5b600460008473ffffffffffffffffffffffffffffffffffffffff1673ffffffffffffffffffffffffffffffffffffffff1681526020019081526020016000205482600460008673ffffffffffffffffffffffffffffffffffffffff1673ffffffffffffffffffffffffffffffffffffffff1681526020019081526020016000205461101a9190611568565b101561102557600080fd5b61106e600460003373ffffffffffffffffffffffffffffffffffffffff1673ffffffffffffffffffffffffffffffffffffffff1681526020019081526020016000205483610ee6565b600460003373ffffffffffffffffffffffffffffffffffffffff1673ffffffffffffffffffffffffffffffffffffffff168152602001908152602001600020819055506110fa600460008573ffffffffffffffffffffffffffffffffffffffff1673ffffffffffffffffffffffffffffffffffffffff168152602001908152602001600020548361128d565b600460008573ffffffffffffffffffffffffffffffffffffffff1673ffffffffffffffffffffffffffffffffffffffff168152602001908152602001600020819055508273ffffffffffffffffffffffffffffffffffffffff163373ffffffffffffffffffffffffffffffffffffffff167fddf252ad1be2c89b69c2b068fc378daa952ba7f163c4a11628f55a4df523b3ef8460405161119a9190611531565b60405180910390a36001905092915050565b6000600360009054906101000a900473ffffffffffffffffffffffffffffffffffffffff16905090565b60056020528060005260406000206000915090505481565b6000600660008473ffffffffffffffffffffffffffffffffffffffff1673ffffffffffffffffffffffffffffffffffffffff16815260200190815260200160002060008373ffffffffffffffffffffffffffffffffffffffff1673ffffffffffffffffffffffffffffffffffffffff16815260200190815260200160002054905092915050565b60046020528060005260406000206000915090505481565b6000818361129b9190611568565b9050828110156112aa57600080fd5b92915050565b80600360006101000a81548173ffffffffffffffffffffffffffffffffffffffff021916908373ffffffffffffffffffffffffffffffffffffffff16021790555050565b60008135905061130381611707565b92915050565b6000813590506113188161171e565b92915050565b60006020828403121561133057600080fd5b600061133e848285016112f4565b91505092915050565b6000806040838503121561135a57600080fd5b6000611368858286016112f4565b9250506020611379858286016112f4565b9150509250929050565b60008060006060848603121561139857600080fd5b60006113a6868287016112f4565b93505060206113b7868287016112f4565b92505060406113c886828701611309565b9150509250925092565b600080604083850312156113e557600080fd5b60006113f3858286016112f4565b925050602061140485828601611309565b9150509250929050565b6000806040838503121561142157600080fd5b600061142f85828601611309565b925050602061144085828601611309565b9150509250929050565b6114538161164c565b82525050565b6114628161165e565b82525050565b60006114738261154c565b61147d8185611557565b935061148d818560208601611694565b611496816116f6565b840191505092915050565b6114aa8161168a565b82525050565b60006020820190506114c5600083018461144a565b92915050565b60006040820190506114e0600083018561144a565b6114ed60208301846114a1565b9392505050565b60006020820190506115096000830184611459565b92915050565b600060208201905081810360008301526115298184611468565b905092915050565b600060208201905061154660008301846114a1565b92915050565b600081519050919050565b600082825260208201905092915050565b60006115738261168a565b915061157e8361168a565b9250827fffffffffffffffffffffffffffffffffffffffffffffffffffffffffffffffff038211156115b3576115b26116c7565b5b828201905092915050565b60006115c98261168a565b91506115d48361168a565b9250817fffffffffffffffffffffffffffffffffffffffffffffffffffffffffffffffff048311821515161561160d5761160c6116c7565b5b828202905092915050565b60006116238261168a565b915061162e8361168a565b925082821015611641576116406116c7565b5b828203905092915050565b60006116578261166a565b9050919050565b60008115159050919050565b600073ffffffffffffffffffffffffffffffffffffffff82169050919050565b6000819050919050565b60005b838110156116b2578082015181840152602081019050611697565b838111156116c1576000848401525b50505050565b7f4e487b7100000000000000000000000000000000000000000000000000000000600052601160045260246000fd5b6000601f19601f8301169050919050565b6117108161164c565b811461171b57600080fd5b50565b6117278161168a565b811461173257600080fd5b5056fea26469706673582212200220b69da134f6bfa08ef46541453bb671ece4e5dfd3bfc7e019f88b05d1f72664736f6c63430008040033",
  "immutableReferences": {},
  "source": "// SPDX-License-Identifier: MIT\r\npragma solidity ^0.8.4;\r\n\r\nimport \"./HEX0924.sol\";\r\n\r\ncontract safeMath {\r\n    // prevent overflow, underflow\r\n    function safeAdd(uint a, uint b) public pure returns (uint c) {\r\n        c = a + b;\r\n        require(c >= a);\r\n        \r\n        return c;\r\n    }\r\n    \r\n    function safeSub(uint a, uint b) public pure returns (uint c) {\r\n        require(b <= a);\r\n        c = a - b;\r\n        \r\n        return c;\r\n    }\r\n}\r\n\r\n\r\ncontract HEX0924_logic is safeMath, HEX0924{\r\n    //address public owner; // owner of proxy contract\r\n    //address public implementation;\r\n    \r\n    \r\n   // mapping (address => uint) public balance;\r\n    mapping (address => uint) public approved;\r\n    mapping(address => mapping (address => uint256)) private allowed;\r\n    \r\n    event Transfer(address indexed from, address indexed to, uint256 value);\r\n    event Approval(address indexed owner, address indexed spender, uint256 value);\r\n    \r\n    \r\n    \r\n    \r\n    function transfer(address to, uint256 value) external returns (bool) {\r\n        require(to > address(0));\r\n        require(balance[msg.sender] >= value);\r\n        require(balance[to] + value >= balance[to]); // check overflow\r\n        \r\n        balance[msg.sender] = safeSub(balance[msg.sender], value);\r\n        balance[to] = safeAdd(balance[to], value);\r\n        \r\n        emit Transfer(msg.sender, to, value);\r\n        return true;\r\n    }\r\n    \r\n    function transferFrom(address from, address to, uint256 value) external returns (bool) {\r\n        require(from > address(0));\r\n        require(to > address(0));\r\n        require(balance[from] >= value);\r\n        require(balance[to] + value >= balance[to]);\r\n        require(allowed[from][msg.sender] >= value);\r\n        \r\n        balance[from] = safeSub(balance[from], value);\r\n        balance[to] = safeAdd(balance[to], value);\r\n        allowed[from][msg.sender] = safeSub(allowed[from][msg.sender], value); \r\n        \r\n        emit Transfer(from, msg.sender, value);\r\n        return true;\r\n    }\r\n    \r\n    function approve(address spender, uint256 value) external returns (bool) {\r\n        require(spender > address(0));\r\n        \r\n        allowed[msg.sender][spender] = safeAdd(allowed[msg.sender][spender], value);\r\n        \r\n        emit Approval(msg.sender, spender, value);\r\n        return true;\r\n    }\r\n    \r\n    function totalSupply() external view returns (uint256) {\r\n        return total_amount;\r\n    }\r\n    \r\n    function balanceOf(address who) external view returns (uint256) {\r\n        return balance[who];\r\n    }\r\n    \r\n    function allowance(address owner, address spender) external view returns (uint256) {\r\n        return allowed[owner][spender];\r\n    }\r\n    \r\n    \r\n    \r\n}\r\n\r\n\r\n\r\n\r\n\r\n\r\n\r\n\r\n\r\n\r\n\r\n\r\n\r\n\r\n\r\n\r\n\r\n\r\n\r\ninterface IERC20 {\r\n    function transfer(address to, uint256 value) external returns (bool);\r\n    function approve(address spender, uint256 value) external returns (bool);\r\n    function transferFrom(address from, address to, uint256 value) external returns (bool);\r\n    function totalSupply() external view returns (uint256);\r\n    function balanceOf(address who) external view returns (uint256);\r\n    function allowance(address owner, address spender) external view returns (uint256);\r\n\r\n    event Transfer(address indexed from, address indexed to, uint256 value);\r\n    event Approval(address indexed owner, address indexed spender, uint256 value);\r\n}\r\n",
  "sourcePath": "C:\\Users\\01097\\smart_contract\\contracts\\smartContract.sol",
  "compiler": {
    "name": "solc",
    "version": "0.8.4+commit.c7e474f2.Emscripten.clang"
  },
  "schemaVersion": "3.4.3",
  "updatedAt": "2021-10-16T08:31:51.213Z",
  "devdoc": {
    "kind": "dev",
    "methods": {},
    "version": 1
  },
  "userdoc": {
    "kind": "user",
    "methods": {},
    "version": 1
  }
}