{
  "contractName": "HEX0924",
  "abi": [
    {
      "inputs": [],
      "stateMutability": "nonpayable",
      "type": "constructor"
    },
    {
      "anonymous": false,
      "inputs": [
        {
          "indexed": false,
          "internalType": "address",
          "name": "",
          "type": "address"
        },
        {
          "indexed": false,
          "internalType": "uint256",
          "name": "",
          "type": "uint256"
        }
      ],
      "name": "Received",
      "type": "event"
    },
    {
      "stateMutability": "payable",
      "type": "fallback",
      "payable": true
    },
    {
      "inputs": [
        {
          "internalType": "address",
          "name": "",
          "type": "address"
        }
      ],
      "name": "balance",
      "outputs": [
        {
          "internalType": "uint256",
          "name": "",
          "type": "uint256"
        }
      ],
      "stateMutability": "view",
      "type": "function",
      "constant": true
    },
    {
      "inputs": [],
      "name": "implementation",
      "outputs": [
        {
          "internalType": "address",
          "name": "",
          "type": "address"
        }
      ],
      "stateMutability": "view",
      "type": "function",
      "constant": true
    },
    {
      "inputs": [],
      "name": "init_amount",
      "outputs": [
        {
          "internalType": "uint256",
          "name": "",
          "type": "uint256"
        }
      ],
      "stateMutability": "view",
      "type": "function",
      "constant": true
    },
    {
      "inputs": [],
      "name": "name",
      "outputs": [
        {
          "internalType": "string",
          "name": "",
          "type": "string"
        }
      ],
      "stateMutability": "view",
      "type": "function",
      "constant": true
    },
    {
      "inputs": [],
      "name": "owner",
      "outputs": [
        {
          "internalType": "address",
          "name": "",
          "type": "address"
        }
      ],
      "stateMutability": "view",
      "type": "function",
      "constant": true
    },
    {
      "inputs": [],
      "name": "owner_address",
      "outputs": [
        {
          "internalType": "address",
          "name": "",
          "type": "address"
        }
      ],
      "stateMutability": "view",
      "type": "function",
      "constant": true
    },
    {
      "inputs": [],
      "name": "symbol",
      "outputs": [
        {
          "internalType": "string",
          "name": "",
          "type": "string"
        }
      ],
      "stateMutability": "view",
      "type": "function",
      "constant": true
    },
    {
      "inputs": [],
      "name": "total_amount",
      "outputs": [
        {
          "internalType": "uint256",
          "name": "",
          "type": "uint256"
        }
      ],
      "stateMutability": "view",
      "type": "function",
      "constant": true
    },
    {
      "stateMutability": "payable",
      "type": "receive",
      "payable": true
    },
    {
      "inputs": [
        {
          "internalType": "address",
          "name": "_newImplementation",
          "type": "address"
        }
      ],
      "name": "upgrageTo",
      "outputs": [],
      "stateMutability": "nonpayable",
      "type": "function"
    }
  ],
  "bytecode": "0x608060405234801561001057600080fd5b5033600160006101000a81548173ffffffffffffffffffffffffffffffffffffffff021916908373ffffffffffffffffffffffffffffffffffffffff16021790555068056bc75e2d6310000060008190555060005460046000600160009054906101000a900473ffffffffffffffffffffffffffffffffffffffff1673ffffffffffffffffffffffffffffffffffffffff1673ffffffffffffffffffffffffffffffffffffffff1681526020019081526020016000208190555033600260006101000a81548173ffffffffffffffffffffffffffffffffffffffff021916908373ffffffffffffffffffffffffffffffffffffffff1602179055506108718061011a6000396000f3fe60806040526004361061008a5760003560e01c8063673cd98e11610059578063673cd98e1461029657806380edef8e146102c15780638da5cb5b146102ec57806395d89b4114610317578063e3d670d71461034257610164565b806306fdde03146101ec5780631c2e3e8a146102175780634e234780146102425780635c60da1b1461026b57610164565b366101645760963461009c919061071b565b600460003373ffffffffffffffffffffffffffffffffffffffff1673ffffffffffffffffffffffffffffffffffffffff168152602001908152602001600020546100e691906106c5565b600460003373ffffffffffffffffffffffffffffffffffffffff1673ffffffffffffffffffffffffffffffffffffffff168152602001908152602001600020819055507f88a5966d370b9919b20f3e2c13ff65706f196a4e32cc2c12bf57088f88525874333460405161015a929190610643565b60405180910390a1005b6000600360009054906101000a900473ffffffffffffffffffffffffffffffffffffffff169050600073ffffffffffffffffffffffffffffffffffffffff168173ffffffffffffffffffffffffffffffffffffffff1614156101c557600080fd5b60405136600082376000803683855af43d806000843e81600081146101e8578184f35b8184fd5b3480156101f857600080fd5b5061020161037f565b60405161020e919061066c565b60405180910390f35b34801561022357600080fd5b5061022c6103b8565b604051610239919061068e565b60405180910390f35b34801561024e57600080fd5b50610269600480360381019061026491906105a8565b6103c5565b005b34801561027757600080fd5b50610280610486565b60405161028d9190610628565b60405180910390f35b3480156102a257600080fd5b506102ab6104ac565b6040516102b8919061068e565b60405180910390f35b3480156102cd57600080fd5b506102d66104b2565b6040516102e39190610628565b60405180910390f35b3480156102f857600080fd5b506103016104d8565b60405161030e9190610628565b60405180910390f35b34801561032357600080fd5b5061032c6104fe565b604051610339919061066c565b60405180910390f35b34801561034e57600080fd5b50610369600480360381019061036491906105a8565b610537565b604051610376919061068e565b60405180910390f35b6040518060400160405280600781526020017f484558303932340000000000000000000000000000000000000000000000000081525081565b68056bc75e2d6310000081565b600260009054906101000a900473ffffffffffffffffffffffffffffffffffffffff1673ffffffffffffffffffffffffffffffffffffffff163373ffffffffffffffffffffffffffffffffffffffff161461041f57600080fd5b8073ffffffffffffffffffffffffffffffffffffffff16600360009054906101000a900473ffffffffffffffffffffffffffffffffffffffff1673ffffffffffffffffffffffffffffffffffffffff16141561047a57600080fd5b6104838161054f565b50565b600360009054906101000a900473ffffffffffffffffffffffffffffffffffffffff1681565b60005481565b600160009054906101000a900473ffffffffffffffffffffffffffffffffffffffff1681565b600260009054906101000a900473ffffffffffffffffffffffffffffffffffffffff1681565b6040518060400160405280600781526020017f484558544558540000000000000000000000000000000000000000000000000081525081565b60046020528060005260406000206000915090505481565b80600360006101000a81548173ffffffffffffffffffffffffffffffffffffffff021916908373ffffffffffffffffffffffffffffffffffffffff16021790555050565b6000813590506105a281610824565b92915050565b6000602082840312156105ba57600080fd5b60006105c884828501610593565b91505092915050565b6105da81610775565b82525050565b60006105eb826106a9565b6105f581856106b4565b93506106058185602086016107b1565b61060e81610813565b840191505092915050565b610622816107a7565b82525050565b600060208201905061063d60008301846105d1565b92915050565b600060408201905061065860008301856105d1565b6106656020830184610619565b9392505050565b6000602082019050818103600083015261068681846105e0565b905092915050565b60006020820190506106a36000830184610619565b92915050565b600081519050919050565b600082825260208201905092915050565b60006106d0826107a7565b91506106db836107a7565b9250827fffffffffffffffffffffffffffffffffffffffffffffffffffffffffffffffff038211156107105761070f6107e4565b5b828201905092915050565b6000610726826107a7565b9150610731836107a7565b9250817fffffffffffffffffffffffffffffffffffffffffffffffffffffffffffffffff048311821515161561076a576107696107e4565b5b828202905092915050565b600061078082610787565b9050919050565b600073ffffffffffffffffffffffffffffffffffffffff82169050919050565b6000819050919050565b60005b838110156107cf5780820151818401526020810190506107b4565b838111156107de576000848401525b50505050565b7f4e487b7100000000000000000000000000000000000000000000000000000000600052601160045260246000fd5b6000601f19601f8301169050919050565b61082d81610775565b811461083857600080fd5b5056fea264697066735822122022b1f5295100891c06557c1b7b2107c1cac2784e231ce88a6bb09c884ec68fd764736f6c63430008040033",
  "immutableReferences": {},
  "source": "// SPDX-License-Identifier: MIT\r\npragma solidity ^0.8.4;\r\n\r\ncontract HEX0924 {\r\n    string public constant name = \"HEX0924\";\r\n    string public constant symbol = \"HEXTEXT\";\r\n    uint256 public constant init_amount = 10**20;\r\n    uint256 public total_amount;\r\n    \r\n    address public owner_address; // owner of HEX0924 contract\r\n    address public owner; // owner of proxy contract\r\n    address public implementation;\r\n    \r\n    \r\n    mapping (address => uint) public balance;\r\n    \r\n    event Received(address, uint);\r\n    \r\n    \r\n    modifier onlyOwner() {\r\n        require(msg.sender == owner);\r\n        _;\r\n    }\r\n    \r\n    constructor () {\r\n        owner_address = msg.sender;\r\n        total_amount = init_amount;\r\n        balance[owner_address] = total_amount;\r\n        owner = msg.sender;\r\n    }\r\n    \r\n    \r\n    \r\n    \r\n    \r\n    function upgrageTo(address _newImplementation) external onlyOwner {\r\n        require(implementation != _newImplementation);\r\n        _setImplementation(_newImplementation);\r\n    }\r\n    \r\n    function _setImplementation(address _newImp) internal {\r\n        implementation = _newImp;\r\n    }\r\n    \r\n    \r\n    // fall back function \r\n    fallback() payable external {\r\n        address imp = implementation;\r\n        require(imp != address(0));\r\n        \r\n        assembly {\r\n            let ptr := mload(0x40)\r\n            calldatacopy(ptr, 0, calldatasize())\r\n            let result := delegatecall(gas(), imp, ptr, calldatasize(), 0 , 0)\r\n            let size := returndatasize()\r\n            returndatacopy(ptr, 0, size)\r\n            \r\n            switch result\r\n            case 0 { revert(ptr, size)}\r\n            default { return(ptr, size)}\r\n        }\r\n        \r\n    }\r\n    \r\n    // receive function\r\n    receive() external payable {\r\n        balance[msg.sender] = balance[msg.sender] + (msg.value*150);\r\n        \r\n        emit Received(msg.sender, msg.value); \r\n    }\r\n    \r\n    \r\n    \r\n}",
  "sourcePath": "C:\\Users\\ADONIS KIM\\Desktop\\SmartContract\\contracts\\HEX0924.sol",
  "compiler": {
    "name": "solc",
    "version": "0.8.4+commit.c7e474f2.Emscripten.clang"
  },
  "schemaVersion": "3.4.3",
  "updatedAt": "2021-10-15T08:58:17.375Z",
  "networkType": "ethereum",
  "devdoc": {
    "kind": "dev",
    "methods": {},
    "version": 1
  },
  "userdoc": {
    "kind": "user",
    "methods": {},
    "version": 1
  }
}