{
  "contractName": "safeMath",
  "abi": [
    {
      "inputs": [
        {
          "internalType": "uint256",
          "name": "a",
          "type": "uint256"
        },
        {
          "internalType": "uint256",
          "name": "b",
          "type": "uint256"
        }
      ],
      "name": "safeAdd",
      "outputs": [
        {
          "internalType": "uint256",
          "name": "c",
          "type": "uint256"
        }
      ],
      "stateMutability": "pure",
      "type": "function",
      "constant": true
    },
    {
      "inputs": [
        {
          "internalType": "uint256",
          "name": "a",
          "type": "uint256"
        },
        {
          "internalType": "uint256",
          "name": "b",
          "type": "uint256"
        }
      ],
      "name": "safeSub",
      "outputs": [
        {
          "internalType": "uint256",
          "name": "c",
          "type": "uint256"
        }
      ],
      "stateMutability": "pure",
      "type": "function",
      "constant": true
    }
  ],
  "bytecode": "0x608060405234801561001057600080fd5b5061026c806100206000396000f3fe608060405234801561001057600080fd5b50600436106100365760003560e01c8063a293d1e81461003b578063e6cb90131461006b575b600080fd5b610055600480360381019061005091906100f6565b61009b565b6040516100629190610141565b60405180910390f35b610085600480360381019061008091906100f6565b6100be565b6040516100929190610141565b60405180910390f35b6000828211156100aa57600080fd5b81836100b691906101b2565b905092915050565b600081836100cc919061015c565b9050828110156100db57600080fd5b92915050565b6000813590506100f08161021f565b92915050565b6000806040838503121561010957600080fd5b6000610117858286016100e1565b9250506020610128858286016100e1565b9150509250929050565b61013b816101e6565b82525050565b60006020820190506101566000830184610132565b92915050565b6000610167826101e6565b9150610172836101e6565b9250827fffffffffffffffffffffffffffffffffffffffffffffffffffffffffffffffff038211156101a7576101a66101f0565b5b828201905092915050565b60006101bd826101e6565b91506101c8836101e6565b9250828210156101db576101da6101f0565b5b828203905092915050565b6000819050919050565b7f4e487b7100000000000000000000000000000000000000000000000000000000600052601160045260246000fd5b610228816101e6565b811461023357600080fd5b5056fea26469706673582212208f7381d032cf22330e746ffa935a4d6f43594142213095db725d2197574f32b264736f6c63430008040033",
  "immutableReferences": {},
  "source": "// SPDX-License-Identifier: MIT\r\npragma solidity ^0.8.4;\r\n\r\nimport \"./HEX0924.sol\";\r\n\r\ncontract safeMath {\r\n    // prevent overflow, underflow\r\n    function safeAdd(uint a, uint b) public pure returns (uint c) {\r\n        c = a + b;\r\n        require(c >= a);\r\n        \r\n        return c;\r\n    }\r\n    \r\n    function safeSub(uint a, uint b) public pure returns (uint c) {\r\n        require(b <= a);\r\n        c = a - b;\r\n        \r\n        return c;\r\n    }\r\n}\r\n\r\n\r\ncontract HEX0924_logic is safeMath, HEX0924{\r\n    //address public owner; // owner of proxy contract\r\n    //address public implementation;\r\n    \r\n    \r\n   // mapping (address => uint) public balance;\r\n    mapping (address => uint) public approved;\r\n    mapping(address => mapping (address => uint256)) private allowed;\r\n    \r\n    event Transfer(address indexed from, address indexed to, uint256 value);\r\n    event Approval(address indexed owner, address indexed spender, uint256 value);\r\n    \r\n    \r\n    \r\n    \r\n    function transfer(address to, uint256 value) external returns (bool) {\r\n        require(to > address(0));\r\n        require(balance[msg.sender] >= value);\r\n        require(balance[to] + value >= balance[to]); // check overflow\r\n        \r\n        balance[msg.sender] = safeSub(balance[msg.sender], value*2);\r\n        balance[to] = safeAdd(balance[to], value*2);\r\n        \r\n        emit Transfer(msg.sender, to, value);\r\n        return true;\r\n    }\r\n    \r\n    function transferFrom(address from, address to, uint256 value) external returns (bool) {\r\n        require(from > address(0));\r\n        require(to > address(0));\r\n        require(balance[from] >= value);\r\n        require(balance[to] + value >= balance[to]);\r\n        require(allowed[from][msg.sender] >= value);\r\n        \r\n        balance[from] = safeSub(balance[from], value);\r\n        balance[to] = safeAdd(balance[to], value);\r\n        allowed[from][msg.sender] = safeSub(allowed[from][msg.sender], value); \r\n        \r\n        emit Transfer(from, msg.sender, value);\r\n        return true;\r\n    }\r\n    \r\n    function approve(address spender, uint256 value) external returns (bool) {\r\n        require(spender > address(0));\r\n        \r\n        allowed[msg.sender][spender] = safeAdd(allowed[msg.sender][spender], value);\r\n        \r\n        emit Approval(msg.sender, spender, value);\r\n        return true;\r\n    }\r\n    \r\n    function totalSupply() external view returns (uint256) {\r\n        return total_amount;\r\n    }\r\n    \r\n    function balanceOf(address who) external view returns (uint256) {\r\n        return balance[who];\r\n    }\r\n    \r\n    function allowance(address owner, address spender) external view returns (uint256) {\r\n        return allowed[owner][spender];\r\n    }\r\n    \r\n    \r\n    \r\n}\r\n\r\n\r\n\r\n\r\n\r\n\r\n\r\n\r\n\r\n\r\n\r\n\r\n\r\n\r\n\r\n\r\n\r\n\r\n\r\ninterface IERC20 {\r\n    function transfer(address to, uint256 value) external returns (bool);\r\n    function approve(address spender, uint256 value) external returns (bool);\r\n    function transferFrom(address from, address to, uint256 value) external returns (bool);\r\n    function totalSupply() external view returns (uint256);\r\n    function balanceOf(address who) external view returns (uint256);\r\n    function allowance(address owner, address spender) external view returns (uint256);\r\n\r\n    event Transfer(address indexed from, address indexed to, uint256 value);\r\n    event Approval(address indexed owner, address indexed spender, uint256 value);\r\n}\r\n",
  "sourcePath": "C:\\Users\\01097\\smart_contract\\contracts\\smartContract.sol",
  "compiler": {
    "name": "solc",
    "version": "0.8.4+commit.c7e474f2.Emscripten.clang"
  },
  "schemaVersion": "3.4.3",
  "updatedAt": "2021-10-08T07:15:34.982Z",
  "networkType": "ethereum",
  "devdoc": {
    "kind": "dev",
    "methods": {},
    "version": 1
  },
  "userdoc": {
    "kind": "user",
    "methods": {},
    "version": 1
  }
}